:020000040800F2
:10000000000002208D270008ED110008EF11000804
:10001000F1110008F3110008F511000800000000BC
:10002000000000000000000000000000F7110008C0
:10003000F911000800000000FB110008FD11000884
:10004000DD270008DD270008DD270008DD27000880
:10005000DD270008DD270008910700089B0700083E
:10006000A5070008AF070008DD270008DD27000806
:10007000DD270008DD270008DD270008DD27000850
:1000800005120008DD270008F9080008DD27000830
:10009000DD270008DD270008DD270008DD27000830
:1000A000DD270008DD270008DD270008DD27000820
:1000B000DD270008DD270008DD270008DD27000810
:1000C000DD270008DD270008DD270008DD27000800
:1000D000DD270008E9080008DD270008DD27000803
:1000E000DD270008DD270008DD270008DD270008E0
:1000F000DD270008DD270008DD270008DD270008D0
:10010000DD270008DD270008DD270008DD270008BF
:10011000DD270008DD270008DD270008DD270008AF
:10012000DD270008DD270008DD270008DD2700089F
:10013000DD2700080000000000000000DD270008A7
:10014000DD270008DD270008DD270008DD2700087F
:10015000DD270008DD270008DD270008DD2700086F
:10016000DD270008DD270008DD270008DD2700085F
:10017000DD270008DD270008DD270008000000005B
:1001800000000000DD270008000000000000000063
:10019000DD2700080000000000000000DD27000847
:1001A000000000000000000000000000DD27000843
:1001B000DD270008DD270008DD270008DD2700080F
:0401C000DD2700082F
:1001D00010B5054C237833B9044B13B10448AFF381
:1001E00000800123237010BD5C000020000000008F
:1001F000B83A000808B5034B1BB103490348AFF3F5
:10020000008008BD0000000060000020B83A00082F
:1002100010F8012B11F8013B012A28BF9A42F7D0B0
:10022000D01A7047034613F8012B002AFBD1181A85
:1002300001387047000000000000000000000000CE
:1002400001F0FF01102A2BDB10F0070F08D010F887
:10025000013B013A8B422DD010F0070F42B3F6D18B
:10026000F0B441EA012141EA014122F007047FF0A4
:1002700000070023F0E80256083C85EA010586EAFB
:10028000010685FA47F5A3FA87F586FA47F6A5FA37
:1002900087F68EB9EED1F0BC01F0FF0102F0070243
:1002A00032B110F8013B013A83EA010313B1F8D1EE
:1002B0000020704701387047002D06BF35460338CF
:1002C000073815F0010F07D1013015F4807F02BF08
:1002D000013015F4C03F0130F0BC0138704700BF59
:1002E00053B94AB9002908BF00281CBF4FF0FF319D
:1002F0004FF0FF3000F088B9ADF1080C6DE904CE85
:1003000000F006F8DDF804E0DDE9022304B07047F0
:100310002DE9F047089D8E4604468846002B4AD1B9
:100320008A42174662D9B2FA82F64EB1C6F120036C
:1003300001FA06F820FA03F3B74043EA0808B4408C
:100340004FEA174E1FFA87FCB8FBFEF1230C0EFB99
:10035000118843EA084301FB0CF29A4209D9FB18C1
:1003600001F1FF3080F0EA809A4240F2E7800239E2
:100370003B449A1AA3B2B2FBFEF00EFB102243EAF2
:10038000024300FB0CFC9C4509D9FB1800F1FF322D
:1003900080F0D6809C4540F2D3803B44023840EA4E
:1003A0000140A3EB0C0300211DB1F3400022C5E97D
:1003B0000032BDE8F0878B4205D90DB1C5E90001D7
:1003C00000210846F5E7B3FA83F1002946D17345C9
:1003D00002D3824200F20581841A6EEB03020120EF
:1003E0009046002DE5D0C5E90048E2E7002A00F07C
:1003F0009080B2FA82F6002E40F0A4808A1A030C94
:100400004FEA174E80B2BCB20121B2FBFEFC0EFBDC
:100410001C2243EA024304FB0CF29A4207D9FB1860
:100420000CF1FF3802D29A4200F2E080C4469B1AD7
:10043000B3FBFEF20EFB123340EA034302FB04F46B
:100440009C4207D9FB1802F1FF3002D29C4200F215
:10045000CA8002461B1B42EA0C40A5E7C1F12006F8
:100460008B4022FA06F71F430EFA01F420FA06F336
:100470002EFA06FE4FEA1749234300FA01F81FFA45
:1004800087FCBEFBF9F01C0C09FB10EE44EA0E449D
:1004900000FB0CFEA64502FA01F209D93C1900F155
:1004A000FF3A80F09C80A64540F2998002383C4497
:1004B000A4EB0E041FFA83FEB4FBF9F309FB13440B
:1004C0004EEA044403FB0CFCA44508D93C1903F193
:1004D000FF3E80F08280A4457FD9023B3C4443EA42
:1004E0000040A4EB0C04A0FB02EC64457346E1461B
:1004F00062D35FD05DB1B8EB030264EB090404FA88
:1005000006F622FA01F31E43CC40C5E9006400213F
:100510004FE7B1FBF2FC010C41EA0E4180B240EA28
:1005200001423B4638463C46B846BE462026B1FB13
:10053000F7F1A2EB080241EA0C4166E7014618E731
:1005400010462CE7C6F120022EFA02F3B740B14064
:1005500020FA02F24FEA174E0A43B3FBFEF8BCB290
:100560000EFB1833110C41EA034108FB04F9B040BB
:1005700089454FEA104380B23ED9791808F1FF3C13
:1005800001D289451FD8A1EB0901B1FBFEF909FB96
:1005900004F80EFB191192B242EA0142424529D2F7
:1005A000BA1809F1FF31C4D24245C2D2A9F1020101
:1005B0003A44BEE7F0459DD2BEEB02036CEB070C5C
:1005C0000138E14696E7A7EB09094944A8F1020C76
:1005D000B1FBFEF909FB04F8DBE773467FE7504601
:1005E00066E70846FDE63B44023A33E7ACF1020C0D
:1005F0003B441CE749469CE7A1EB0901C446B1FB1B
:10060000FEF909FB04F8C4E7704700BF2DE9F04F7D
:1006100089B00024039404940594069407940094EC
:100620004A4B1A6B42F080021A631A6B02F0800286
:100630000092009A01941A6B42F001021A631A6B3D
:1006400002F001020192019A02941A6B42F0020236
:100650001A631B6B03F002030293029B4FF4404B9F
:10066000CDF80CB001260496DFF8ECA003A95046A3
:1006700001F040FD4FF44079CDF80C90344F03A9C0
:10068000384601F037FD4FF41048CDF80C80314D5D
:1006900003A9284601F02EFD22465946504601F096
:1006A00019FE22464946384601F014FE22464146CC
:1006B000284601F00FFE03964FF488130493059625
:1006C00003A9284601F016FD22460221062001F06A
:1006D000B5FF062001F0C2FF0F2303934FF404136C
:1006E00004930596069403A9284601F003FD2246CB
:1006F0000221062001F0A2FF062001F0AFFF2246F2
:100700000221072001F09AFF072001F0A7FF2246EF
:100710000221082001F092FF082001F09FFF2246ED
:100720000221092001F08AFF092001F097FF2B68C0
:1007300043F470532B60EB6823F47053EB6045F285
:1007400055533B6009B0BDE8F08F00BF0038024050
:1007500000040240000002400008024000B583B0DF
:1007600000210191094B1A6B42F400121A631B6BB2
:1007700003F400130193019B0A46102001F05EFF71
:10078000102001F06BFF03B05DF804FB003802405D
:1007900008B5012001F0A4FD08BD08B5022001F054
:1007A0009FFD08BD08B5042001F09AFD08BD08B5FD
:1007B000082001F095FD08BD10B582B0044601F097
:1007C000B1FF631E072B0BD8DFE803F004220A3EBB
:1007D0000A0A0A5A384B1B68C31AB3F5967F01D828
:1007E00002B010BD344B1860344B93E80300009006
:1007F000ADF80410090C8DF806106846FFF712FDDD
:100800004FF0FF3382B269462D4801F005FAE7E761
:10081000294B5B68C31AB3F5967FE1D9264B586024
:10082000284B93E803000090ADF80410090C8DF8F4
:1008300006106846FFF7F6FC4FF0FF3382B26946B8
:100840001F4801F0E9F9CBE71B4B9B68C31AB3F5CE
:10085000967FC5D9184B98601B4B93E80300009016
:10086000ADF80410090C8DF806106846FFF7DAFCA5
:100870004FF0FF3382B26946114801F0CDF9AFE77E
:100880000D4BDB68C31AB3F5967FA9D90A4BD86024
:100890000E4B93E803000090ADF80410090C8DF89E
:1008A00006106846FFF7BEFC4FF0FF3382B2694680
:1008B000034801F0B1F993E778000020DC3A000822
:1008C000C8000020E43A0008EC3A0008F43A0008B6
:1008D00000F01F00034B58639A6842F080429A6010
:1008E000704700BF0020014008B5024801F084FABB
:1008F00008BD00BFC800002008B50E4B1B6813F0F0
:10090000020F0DD00B4BDB6C9BB20B4A1278052A01
:1009100007D00A4A13800520074B1870FFF7D8FF4D
:1009200008BD074A13800620034B1870FFF7D0FF5D
:10093000F6E700BF0020014000000020C2000020B8
:10094000C400002008B50268114B9A4200D008BDCF
:10095000104B1B780A2B0BD00D2B09D00E4A1278A6
:10096000302A0ED8501C0C4908700C498B5408E0F2
:10097000094B19780022094842541A70084B012289
:100980001A7001220349074801F0A1FBDFE700BF0D
:1009900000100140890000208A0000208C00002007
:1009A00088000020C8000020154A536C43F480736F
:1009B0005364144B5A6822F440325A605A6842F425
:1009C00080325A60A3F5407300225A604FF4806170
:1009D0009960DA621A6922F4FC121A611A6942F407
:1009E000FC121A615A6842F020025A60064A4FF41B
:1009F000802111609A6842F001029A60704700BF3E
:100A0000003802400023014000E100E072B6FEE73A
:100A100030B589B0002401941E4B5A6C42F010028C
:100A20005A645A6C02F010020192019A02941A6BF5
:100A300042F001021A631B6B03F001030293029B55
:100A4000039404940594069407944FF4C0630393AD
:100A500002230493032306930723079303A90E4855
:100A600001F048FB0D4D0E4B2B604FF4E1336B60F2
:100A7000AC60EC602C610C236B61AC61EC612520F7
:100A800001F0ECFD284601F097F808B909B030BD37
:100A9000FFF7BCFF0038024000000240C800002001
:100AA0000010014000B595B03422002107A801F0E4
:100AB000E7FE0023029303930493059306930093A8
:100AC000194A116C41F080511164126C02F080528D
:100AD0000092009A019315490A6822F4404242F4B8
:100AE00080420A600A6802F440420192019A02229E
:100AF000079201220A9210220B920D9307A800F090
:100B00000FFD68B90F230293002103910491059111
:100B1000069102A800F09AFB20B915B05DF804FB1D
:100B2000FFF774FFFFF772FF0038024000700040CB
:100B300010B50446FFF776FB02E00022E2540138CC
:100B4000002803DD431EE25C202AF6D010BD000021
:100B500010B588B00146132203A801F0A6FE0024B8
:100B60008DF81F4003A8FFF7E3FFADF808408DF8AC
:100B70000A404FF0FF33019301AB02AA0E4903A8CC
:100B800001F050FE02280ED10C4902A8FFF740FBED
:100B900060B90198A0420CDBFF2801DC08B010BD51
:100BA0004FF0FF30FAE74FF0FF30F7E74FF0FF303C
:100BB000F4E74FF0FF30F1E7FC3A0008043B00088F
:100BC0002DE9F043ADF5037D0E4615461F46FF2285
:100BD000014642A801F069FE00248DF8074242A8B0
:100BE000FFF7A6FFADF804418DF806414FF480727F
:100BF000214601A801F044FE01AB41AA1A4942A8CE
:100C000001F010FE022826D1184941A8FFF700FB89
:100C1000044630BB3B2101A801F03AFE8046D8B122
:100C20004FF0000908F8019B013F3A4601A9304600
:100C300001F03BFE06F807903A464146284601F08F
:100C400034FE05F807903046FFF772FF2846FFF79D
:100C50006FFF012400E0002420460DF5037DBDE870
:100C6000F0830024F8E700BF083B0008143B0008AD
:100C700010B59CB004460378482B0DD02378552B33
:100C80002AD02378572B3BD023784C2B60D0237865
:100C9000452B79D01CB010BD4378492BEED10120F3
:100CA00000F0E4F9484800F0D5F9C02000F0DEF982
:100CB000464800F0CFF9464B93E803000F90ADF89B
:100CC00040100FA8FFF7AEFA4FF0FF3382B20FA922
:100CD000404800F0A1FFD1E76378502BD1D13E4BC3
:100CE00093E803000F90ADF840100FA8FFF79AFAB1
:100CF0004FF0FF3382B20FA9364800F08DFFC0E7F6
:100D00006378522BC0D132230FAA02A92046FFF7E5
:100D100057FF80B9314B93E803000090ADF8041001
:100D20006846FFF77FFA4FF0FF3382B269462948E1
:100D300000F072FFA8E7012000F098F902A800F087
:100D400089F9C02000F092F90FA800F083F9E1E7DB
:100D50006378492B9BD12046FFF7FAFEB0F1FF3FA5
:100D600001D01F4B58611F4B93E803000F90ADF863
:100D700040100FA8FFF756FA4FF0FF3382B20FA9C9
:100D8000144800F049FF82E76378532B82D1012099
:100D900000F06CF90C4800F05DF9C02000F066F935
:100DA000114800F057F9114B93E803000F90ADF88C
:100DB00040100FA8FFF736FA4FF0FF3382B20FA9A9
:100DC000044800F029FF65E7183B0008243B0008B1
:100DD000403B0008C8000020483B0008503B00088A
:100DE00000040240583B0008303B0008603B00080C
:100DF00030B585B001F070FCFFF754FEFFF706FC3C
:100E0000FFF7ACFCFFF704FEFFF7CEFD0520FFF770
:100E10005FFD01222E492F4801F059F900F0AEF98B
:100E2000012000F023F92C4B1B889BB22B4A12881F
:100E300092B29B1A002BB8BF5B42CD2B1CDC284B17
:100E40001B889BB2274A128892B29B1A002BB8BF0C
:100E50005B42CD2B26DC244B1B78002BE3D00025F6
:100E6000214B1D70214C2046FFF702FF32222946FC
:100E7000204601F005FDD6E7174A13889BB21749B3
:100E80000B80128892B21A4901A801F0A9FC01A8AE
:100E9000FFF7C8F94FF0FF3382B201A90D4800F007
:100EA000BBFECCE70E4A13889BB20E490B8012881A
:100EB00092B2104901A801F093FC01A8FFF7B2F922
:100EC0004FF0FF3382B201A9024800F0A5FEC2E74D
:100ED00089000020C8000020C4000020C0000020BD
:100EE000C2000020BE000020880000208C000020EE
:100EF000683B0008743B000882B000EB4000002310
:100F0000019304E000BF00BF019B01330193019BEB
:100F10008342F7D302B0704710B51420FFF7ECFFFF
:100F2000094CA36943F40043A3611420FFF7E4FFD5
:100F3000A36943F00043A3611420FFF7DDFFA36919
:100F400043F40043A36110BD0008024010B50446FD
:100F50003D4A936943F48043936110F0800F41D17F
:100F60003A4A936943F00043936114F0400F40D034
:100F7000364A936943F48053936114F0200F3ED0B6
:100F8000334A936943F40073936114F0100F3CD01B
:100F90002F4A936943F480739361FFF7BDFF14F008
:100FA000080F38D0294A936943F40043936114F041
:100FB000040F36D0254A936943F48053936114F0AB
:100FC000020F34D0224A936943F40073936114F002
:100FD000010F32D01E4A936943F480739361FFF787
:100FE0009BFF10BDA2F50062936943F40043936137
:100FF000BBE7164A936943F080539361BDE7144AF7
:10100000936943F000739361BFE7114A936943F01A
:1010100080739361C1E70D4A936943F00043936184
:10102000C5E70A4A936943F080539361C7E7084ACA
:10103000936943F000739361C9E7054A936943F0EC
:1010400080739361CBE700BF0008024000000240BC
:101050000004024038B50546002403E0FFF776FFA0
:101060000134E4B2285D0028F8D138BD10B504463B
:101070003F4A936943F08043936110F0800F45D15C
:101080003C4A936943F00043936114F0400F44D00D
:10109000384A936943F48053936114F0200F42D08F
:1010A000354A936943F40073936114F0100F40D0F4
:1010B000314A936943F480739361FFF72DFF14F075
:1010C000080F3CD02B4A936943F40043936114F01A
:1010D000040F3AD0274A936943F48053936114F084
:1010E000020F38D0244A936943F40073936114F0DB
:1010F000010F36D0204A936943F480739361FFF760
:101100000BFF40F6B830FFF7F7FE10BDA2F5006206
:10111000936943F400439361B7E7164A936943F038
:1011200080539361B9E7144A936943F00073936164
:10113000BBE7114A936943F080739361BDE70D4AA1
:10114000936943F000439361C1E70A4A936943F00E
:1011500080539361C3E7084A936943F00073936136
:10116000C5E7054A936943F080739361C7E700BF01
:1011700000080240000002400004024008B5194B7C
:101180001A6B42F001021A631A6B42F002021A63F0
:101190001A6B42F004021A63134A136843F0824345
:1011A000136002F58062136843F4A023136002F514
:1011B0008062136843F0A043136047F23050FFF79A
:1011C0009BFE3320FFF752FF3220FFF74FFF0C202A
:1011D000FFF74CFF2820FFF749FF0120FFF746FFEC
:1011E00008BD00BF0038024000000240FEE7FEE7F5
:1011F000FEE7FEE7FEE770477047704708B501F06D
:1012000085FA08BD08B5024801F0D6F808BD00BF50
:101210001001002082B0002100910B4B5A6C42F467
:1012200080425A645A6C02F480420092009A019102
:101230001A6C42F080521A641B6C03F080530193C5
:10124000019B02B0704700BF00380240002800F048
:101250009B8070B50D4604464F4B1B6803F00F038F
:101260008B4208D2CBB24C4A1370136803F00F03C1
:101270008B4240F08B80236813F0020F17D013F0DD
:10128000040F04D0454A936843F4E0539360236805
:1012900013F0080F04D0414A936843F4604393600D
:1012A0003E4A936823F0F003A1680B4393602368E0
:1012B00013F0010F32D06368012B21D09A1E012A4E
:1012C00025D9364A126812F0020F61D033498A6874
:1012D00022F0030213438B6001F024FA06462F4BE1
:1012E0009B6803F00C036268B3EB820F16D001F029
:1012F00019FA801B41F288339842F0D9032042E06A
:10130000264A126812F4003FE0D101203BE0234A54
:10131000126812F0007FD9D1012034E01E4B1B6807
:1013200003F00F03AB4207D9EAB21B4B1A701B68DC
:1013300003F00F03AB422DD1236813F0040F06D046
:10134000164A936823F4E053E1680B4393602368E3
:1013500013F0080F07D0114A936823F46043216902
:1013600043EAC103936000F047F80C4B9B68C3F35A
:1013700003130B4AD35CD8400A4B18600A4B186819
:1013800001F084F9002070BD012070470120FAE7C8
:101390000120F8E70120F6E7003C02400038024057
:1013A000883B00080800002004000020014B18685A
:1013B000704700BF0800002008B5FFF7F7FF044B97
:1013C0009B68C3F38223034AD35CD84008BD00BFA7
:1013D00000380240803B000808B5FFF7E7FF044BE8
:1013E0009B68C3F34233034AD35CD84008BD00BFB7
:1013F00000380240803B000808B5464B9B6803F06C
:101400000C03082B05D00C2B43D0042B7FD1424872
:1014100019E0404B5A6802F03F025B6813F4800FFA
:1014200012D03C4B5968C1F388113B480023A1FB03
:101430000001FEF755FF374B5B68C3F301430133EF
:101440005B00B0FBF3F008BD324B5868C0F3881066
:101450004FEA401CBCEB000C6EEB0E0E4FEA8E13F5
:1014600043EA9C634FEA8C11B1EB0C0163EB0E0372
:10147000DB0043EA5173C90011EB000C43F1000398
:10148000990200234FEA8C2041EA9C51FEF728FF85
:10149000D1E7204B5A6802F03F025B6813F4800FDB
:1014A00010D01C4B5968C1F388111B480023A1FBC5
:1014B0000001FEF715FF174B5B68C3F30273B0FB27
:1014C000F3F0C0E7134B5868C0F388104FEA401C94
:1014D000BCEB000C6EEB0E0E4FEA8E1343EA9C63DE
:1014E0004FEA8C11B1EB0C0163EB0E03DB0043EA16
:1014F0005173C90011EB000C43F100039902002362
:101500004FEA8C2041EA9C51FEF7EAFED3E70348FC
:1015100099E700BF0038024040787D010024F400C4
:10152000002800F0018270B582B00446036813F011
:10153000010F41D0994B9B6803F00C03042B32D070
:10154000964B9B6803F00C03082B27D0934B9B68AA
:1015500003F00C030C2B59D06368B3F5803F5BD0CC
:10156000B3F5A02F5ED08D4B1A6822F480321A603A
:101570001A6822F480221A606368002B5CD001F0A4
:10158000D1F80546854B1B6813F4003F14D101F0D8
:10159000C9F8401B6428F5D90320CCE17F4B5B6878
:1015A00013F4800FD2D07D4B1B6813F4003F03D09F
:1015B0006368002B00F0BA81236813F0020F60D03B
:1015C000764B9B6813F00C0F4AD0744B9B6803F06A
:1015D0000C03082B3FD0714B9B6803F00C030C2BC2
:1015E00069D0E368002B75D06D4B01221A6001F0C1
:1015F00099F80546694B1B6813F0020F61D101F0A1
:1016000091F8401B0228F5D9032094E1634B5B68F5
:1016100013F4800FA0D0C6E7604A136843F4803308
:101620001360A9E75D4B1A6842F480221A601A68B9
:1016300042F480321A609FE701F074F80546574B78
:101640001B6813F4003FB7D001F06CF8401B64280E
:10165000F5D903206FE1514B5B6813F4800FBAD1C9
:101660004E4B1B6813F0020F03D0E368012B40F0D0
:101670005F814A4A136823F0F803216943EAC103F2
:101680001360236813F0080F49D06369002B33D02F
:10169000434B0122C3F8802E01F044F805463F4B2E
:1016A0005B6F13F0020F3AD101F03CF8401B0228A7
:1016B000F5D903203FE1394B5B6813F4800F90D1DB
:1016C000CEE7364A136823F0F803216943EAC103E1
:1016D0001360D6E7324B00221A6001F023F805466A
:1016E0002E4B1B6813F0020FCBD001F01BF8401BF0
:1016F0000228F5D903201EE1294B0022C3F8802ED1
:1017000001F010F80546254B5B6F13F0020F06D071
:1017100001F008F8401B0228F5D903200BE12368EB
:1017200013F0040F76D01D4B1B6C13F0805F33D188
:1017300000230193194B1A6C42F080521A641B6CFF
:1017400003F080530193019B0125164B1B6813F492
:10175000807F29D0A368012B3AD0052B3ED00F4BB8
:101760001A6F22F001021A671A6F22F004021A6738
:10177000A368002B3CD000F0D5FF0646074B1B6F3B
:1017800013F0020F45D100F0CDFF801B41F28833EA
:101790009842F3D90320CEE00025D6E70038024076
:1017A00000004742007000406B4A136843F48073A6
:1017B000136000F0B7FF0646674B1B6813F4807F89
:1017C000C8D100F0AFFF801B0228F5D90320B2E09A
:1017D000624A136F43F001031367C9E75F4B1A6F47
:1017E00042F004021A671A6F42F001021A67BFE75B
:1017F00000F098FF0646594B1B6F13F0020F08D0FC
:1018000000F090FF801B41F288339842F3D9032007
:1018100091E0EDB9A369002B00F08C804F4A9268EB
:1018200002F00C02082A54D0022B17D04C4B002295
:101830001A6600F077FF0446484B1B6813F0007FE0
:1018400045D000F06FFF001B0228F5D9032072E09D
:10185000424A136C23F080531364DBE7404B0022B1
:101860001A6600F05FFF05463C4B1B6813F0007FD3
:1018700006D000F057FF401B0228F5D903205AE09C
:10188000E369226A1343626A43EA8213A26A520836
:10189000013A43EA0243E26A43EA0263226B43EA03
:1018A00002732E4A53602E4B01221A6600F03AFF53
:1018B00004462A4B1B6813F0007F06D100F032FF6C
:1018C000001B0228F5D9032035E0002033E000207A
:1018D00031E0012B31D0214B5B6803F48001E269D8
:1018E00091422CD103F03F02216A8A4229D1616AD8
:1018F00047F6C0721A40B2EB811F24D103F4403185
:10190000A26A5208013AB1EB024F1ED103F0706295
:10191000E16AB2EB016F1AD103F0E043226BB3EB43
:10192000027F16D1002006E001207047012002E06E
:10193000012000E0002002B070BD0120FBE7012083
:10194000F9E70120F7E70120F5E70120F3E701209F
:10195000F1E70120EFE700BF0070004000380240CF
:1019600000004742026802F10C0353E8003F23F4F1
:1019700090730C3242E800310029F3D1026802F181
:10198000140353E8003F23F00103143242E800310E
:101990000029F3D1036B012B05D0202380F84230BE
:1019A000002303637047026802F10C0353E8003F11
:1019B00023F010030C3242E800310029F3D1ECE7A8
:1019C00090F84130DBB2212B01D0022070478368B0
:1019D000B3F5805F17D0036A5A1C02621A78036855
:1019E0005A60C38C9BB2013B9BB2C3844BB9026863
:1019F000D36823F08003D3600268D36843F04003C8
:101A0000D360002070470369002BE4D1036A1B8870
:101A10000268C3F308035360036A02330362E0E71A
:101A200010B504460268136923F44053C1680B43A0
:101A30001361836802691A4343691A43C3691A43ED
:101A40000168CB6823F4164323F00C031343CB60E7
:101A50000268536923F4407381690B43536103683F
:101A6000314A934206D002F58062934202D0FFF7DA
:101A7000A3FC01E0FFF7B0FCE369B3F5004F29D008
:101A80000021031849411B1841F10001C90041EA36
:101A90005371DB00181863684FEA83024FEA9373AF
:101AA00041F10001FEF71CFC204AA2FB003149096C
:101AB000642303FB11031B013233A2FB03235B09E5
:101AC00003F0F00202EB011203F00F03216813444C
:101AD0008B6010BD0023021843EB0301121841F183
:101AE0000001C90041EA5271D200101841F1000111
:101AF000626892185B41FEF7F3FB0C4AA2FB0031CF
:101B00004909642303FB1103DB003233A2FB0323E7
:101B10005B095A0002F4F87202EB011203F00703AA
:101B2000216813448B60D4E7001001401F85EB51FE
:101B30002DE9F04383B005460E4617469946DDF879
:101B400028802B681C6836EA04040CBF012400249A
:101B5000BC4228D1B8F1FF3FF3D000F0E3FDA0EB89
:101B60000900404523D8B8F1000F22D02B68DA686D
:101B700012F0040FE5D0802EE3D0402EE1D01A6899
:101B800012F0080FDDD0002401941A6801925B68FE
:101B90000193019B2846FFF7E5FE08236B6485F857
:101BA0004040012000E0002003B0BDE8F0830320A6
:101BB000FAE70320F8E7704760B310B5044690F8E1
:101BC000413013B3242384F841302268D36823F4CE
:101BD0000053D3602046FFF723FF2268136923F4E4
:101BE000904313612268536923F02A0353612268EA
:101BF000D36843F40053D36000206064202384F84A
:101C0000413084F84230606310BD80F84030FFF707
:101C1000D2FFD7E7012070472DE9F04182B01E4680
:101C200090F84130DBB2202B56D104460D46904649
:101C3000002955D00AB901204FE000234364212335
:101C400080F8413000F06EFD0746A4F82480A4F827
:101C50002680A368B3F5805F02D04FF0000814E03F
:101C600023692BB34FF000080FE0202384F84130A4
:101C7000032032E038F8023B2268C3F308035360C4
:101C8000E28C92B2013A92B2E284E38C9BB293B1BD
:101C900000963B46002280212046FFF749FF00289E
:101CA000E3D1002DE6D015F8012B23685A60E7E751
:101CB000A8460025E9E700963B4600224021204641
:101CC000FFF736FF18B9202384F8413005E02023C0
:101CD00084F84130032000E0022002B0BDE8F0812A
:101CE0000120FAE7704708B50168CA6822F040028F
:101CF000CA60202280F84120FFF7F4FF002008BDD1
:101D0000704708B5806B0023C385FFF7F9FF08BD56
:101D1000704790F84230DBB2222B69D18368B3F56B
:101D2000805F4FD0826AB3F5805F04D0002B56D11C
:101D30000369002B53D103685B681370836A013316
:101D40008362C38D9BB2013B9BB2C385002B51D1F3
:101D500000B583B00268D36823F02003D360026823
:101D6000D36823F48073D3600268536923F00103BE
:101D70005361202380F8423000234363036B012B1F
:101D800033D100230363026802F10C0353E8003FE0
:101D900023F010030C3242E800310029F3D103682C
:101DA0001A6812F0100F06D0002201921A680192F0
:101DB0005B680193019B818DFFF7AAFF002003B0B0
:101DC0005DF804FB0269002AACD1826A03685B6893
:101DD000C3F308031380836A02338362B1E70368A5
:101DE0005B6803F07F031370A8E7FEF7ABFDE5E740
:101DF000022070470020704710B582B00446026888
:101E00001368D068516913F00F0F09D113F0200F38
:101E10000CD010F0200F09D02046FFF77AFF16E013
:101E200011F0010115D110F4907F12D1216B01291D
:101E300079D013F0800F03D010F0800F40F0218193
:101E400013F0400F03D010F0400F40F01E8102B09D
:101E500010BD13F0010F06D010F4807F03D0626C28
:101E600042F00102626413F0040F04D019B1626CF5
:101E700042F00202626413F0020F04D019B1626CE6
:101E800042F00402626413F0080F07D010F0200F34
:101E900000D119B1626C42F008026264626C002ADF
:101EA000D5D013F0200F02D010F0200F29D12368D5
:101EB0005B6903F04003626C12F0080F00D163B35A
:101EC0002046FFF74FFD23685B6913F0400F20D0D9
:101ED000226802F1140353E8003F23F04003143258
:101EE00042E800310029F3D1E36B73B1694A1A6506
:101EF000E06B00F04DFA0028A9D0E06B036D984725
:101F0000A5E72046FFF705FFD1E72046FFF7F8FEDB
:101F10009DE72046FFF7F4FE99E72046FFF7F0FE25
:101F20000023636493E713F0100F82D010F0100FBA
:101F30003FF47FAF0023019313680193536801932B
:101F4000019B536913F0400F5FD0E26B13685B682D
:101F50009BB2002B4AD0A18D994247D9E385D36922
:101F6000B3F5807F37D0226802F10C0353E8003FBD
:101F700023F480730C3242E800310029F3D1226847
:101F800002F1140353E8003F23F00103143242E846
:101F900000310029F3D1226802F1140353E8003F15
:101FA00023F04003143242E800310029F3D120230A
:101FB00084F8423000232363226802F10C0353E8C3
:101FC000003F23F010030C3242E800310029F3D126
:101FD000E06B00F093F902236363A18DE38D9BB264
:101FE000C91A89B22046FFF793FE30E7A18D9942C6
:101FF0007FF42DAFD369B3F5807F7FF428AF022340
:1020000063632046FFF784FE21E7A18DE38D9BB239
:10201000C91A89B2E38D9BB2002B3FF418AF002997
:102020003FF415AF226802F10C0353E8003F23F49C
:1020300090730C3242E800300028F3D1226802F19C
:10204000140353E8003F23F00103143242E8003048
:102050000028F3D1202384F8423000232363226830
:1020600002F10C0353E8003F23F010030C3242E866
:1020700000300028F3D1022363632046FFF748FEB7
:10208000E5E62046FFF79CFCE1E62046FFF72BFE45
:10209000DDE600BF031D000881628285C285002342
:1020A0004364222380F84230036923B10268D36875
:1020B00043F48073D3600268536943F001035361B2
:1020C0000268D36843F02003D3600020704708B54E
:1020D00090F84230DBB2202B08D149B10AB9012077
:1020E00008BD00230363FFF7D7FFF9E70220F7E7F6
:1020F0000120F5E700230F2B00F2E38070B582B0DA
:1021000065E085684FEA430E032404FA0EF425EADD
:102110000405CC6804FA0EF42C438460446824EA75
:1021200002044A68C2F300129A40224342605CE013
:10213000DC08083450F8242003F00705AD004FF008
:102140000F0E0EFA05FE22EA0E0E0A69AA4042EAB6
:102150000E0240F824205CE0062200E0002202FA91
:102160000EF22A430234574D45F82420564A94680B
:102170006FEA0C0224EA0C054E6816F4801F01D0A9
:102180004CEA0405504CA560E46802EA04054E6878
:1021900016F4001F01D04CEA04054B4CE56064685E
:1021A00002EA04054E6816F4003F01D04CEA04052B
:1021B000454C6560246822404D6815F4803F01D08D
:1021C0004CEA0402404C226001330F2B77D80122E5
:1021D0009A400C6804EA020C32EA0404F4D14C6818
:1021E00004F00304013C012C8BD94A6802F003027D
:1021F000032A09D0C4685D000322AA4024EA02042D
:102200008A68AA402243C2604A6802F00302022A96
:102210008ED004684FEA430E032202FA0EF224EA3B
:1022200002044A6802F0030202FA0EF2224302603C
:102230004A6812F4403FC7D000220192234A546CEE
:1022400044F480445464526C02F480420192019A36
:102250009C08A51C1B4A52F8255003F0030E4FEAB8
:102260008E0E0F2202FA0EF225EA0205184A90425B
:102270003FF474AF02F58062904216D002F580629E
:10228000904214D002F58062904212D002F5806232
:10229000904210D002F5806290420ED002F580622A
:1022A00090423FF459AF072259E7012257E7022233
:1022B00055E7032253E7042251E705224FE702B016
:1022C00070BD704700380140003C014000380240BA
:1022D000000002400AB181617047090481617047C2
:1022E00008B5054B5B69034200D108BD024B58613C
:1022F000FEF762FAF9E700BF003C014070B5044602
:10230000866D00F00FFA94F83530DBB2022B06D060
:1023100080236365002384F83430012070BD0546B6
:102320002268136823F0160313602268536923F0B0
:1023300080035361236CE3B12268136823F0080320
:1023400013602268136823F00103136023681B687D
:1023500013F0010F11D000F0E5F9431B052BF5D95F
:1023600020236365032084F83500002384F834308B
:10237000D4E7A36C002BDFD1E3E7E26D3F2393406A
:10238000B360012384F83530002084F83400C5E7B9
:1023900090F83530DBB2022B03D080234365012057
:1023A0007047052380F835300268136823F0010375
:1023B0001360002070470000F0B583B0044600238E
:1023C0000193724B1D68724BA3FB0535AD0A876DF7
:1023D0003E68C26D08239340334210D003681A68E8
:1023E00012F0040F0BD01A6822F004021A60C26DBA
:1023F00008239340BB60436D43F001034365E26DE6
:1024000001239340334209D02268526912F0800FB1
:1024100004D0BB60636D43F002036365E26D042387
:102420009340334209D02268126812F0020F04D0A0
:10243000BB60636D43F004036365E26D102393405A
:10244000334224D02268126812F0080F1FD0BB60FC
:1024500023681A6812F4802F0DD01B6813F4002F24
:1024600004D1236C9BB12046984710E0A36C73B154
:10247000204698470BE01A6812F4807F03D11A684F
:1024800022F008021A60236C0BB120469847E26DD7
:1024900020239340334255D02268126812F0100F67
:1024A00050D0BB6094F83530DBB2052B0ED02368DA
:1024B0001A6812F4802F33D01B6813F4002F2AD12E
:1024C000636C002B3ED0204698473BE0226813689F
:1024D00023F0160313602268536923F080035361CD
:1024E000236CA3B12268136823F008031360E26D24
:1024F0003F239340BB60012384F83530002384F8E8
:102500003430236D002B3FD0204698473CE0A36C2D
:10251000002BE7D1EBE7E36BA3B12046984711E02E
:102520001A6812F4807F09D11A6822F010021A602A
:10253000012384F83530002384F83430E36B0BB189
:1025400020469847636DFBB1636D13F0010F17D000
:10255000052384F835302268136823F001031360E3
:10256000019B01330193AB4204D823681B6813F02D
:10257000010FF5D1012384F83530002384F834307D
:10258000E36C0BB12046984703B0F0BD0800002073
:10259000B5814E1B002807DB00F01F024009012314
:1025A0009340024A42F82030704700BF00E100E04B
:1025B000002808DB0901C9B200F1604000F5614064
:1025C00080F80013704700F00F000901C9B2014BF9
:1025D0001954704714ED00E000B500F00700C0F199
:1025E000070CBCF1040F28BF4FF0040C031D062B91
:1025F0000FD9C31E4FF0FF3E0EFA0CF021EA000186
:1026000099400EFA03FE22EA0E0241EA02005DF84A
:1026100004FB0023EEE70000074AD36823F4E063DD
:102620001B041B0C000200F4E060034343F0BF6393
:1026300043F40033D360704700ED00E010B504466A
:10264000054BD868C0F30220FFF7C6FF01462046BD
:10265000FFF7AEFF10BD00BF00ED00E008B5FFF7CB
:1026600099FF08BD0138B0F1807F0BD24FF0E02315
:102670005861054AF02182F8231000209861072252
:102680001A6170470120704700ED00E010B5044664
:102690000E4B1A784FF47A73B3FBF2F30C4A1068BE
:1026A000B0FBF3F0FFF7DEFF68B90F2C01D9012072
:1026B0000AE0002221464FF0FF30FFF7BFFF054B35
:1026C0001C60002000E0012010BD00BF01000020C0
:1026D000080000200400002008B50B4B1A6842F4E3
:1026E00000721A601A6842F480621A601A6842F432
:1026F00080721A600320FFF78FFF0F20FFF7C6FFDD
:10270000FEF788FD002008BD003C0240034A116826
:10271000034B1B780B441360704700BF700100200F
:1027200001000020014B1868704700BF70010020B5
:10273000034AD2F8883043F47003C2F888307047F7
:1027400000ED00E010B503460C4A0D490D48006845
:1027500040B10C4800680344521A934206D8094A13
:10276000136010BD0748084C0460F2E700F0B0F8B1
:102770000C2303604FF0FF30F3E700BF000002209E
:102780000004000074010020C0020020DFF834D0F3
:10279000FFF7CEFF0C480D490D4A002302E0D45844
:1027A000C4500433C4188C42F9D30A4A0A4C00239B
:1027B00001E013600432A242FBD300F08FF8FEF771
:1027C00017FB704700000220000000205C00002082
:1027D000F83C00085C000020C0020020FEE700007A
:1027E0000EB410B59DB01FAB029006906FF0004183
:1027F0000A48079104910A4953F8042B05910024D3
:1028000002A9006801931B9400F0E2F9029B1C707E
:102810001DB0BDE8104003B0704700BF0C000020A1
:102820000802FFFF0EB470B59DB021AC00254FF437
:10283000017254F8046BADF814201B9502900690B9
:10284000FDF7F0FC0B4B039007900B480B934FF6F2
:10285000FF73ADF816303246234602A900680F9583
:102860001495019400F00AFB1DB0BDE8704003B060
:10287000704700BF7D2800080C0000200020704732
:1028800002440346934200D1704703F8011BF9E765
:10289000C9B20346184613F8012B12B18A42F9D186
:1028A0007047002918BF0020704710B50139034652
:1028B00032B111F8014F03F8014B013A002CF7D166
:1028C0001A440021934200D110BD03F8011BF9E71F
:1028D000014B1868704700BF0C00002070B50D4D0B
:1028E0000D4C641BA4100026A64209D10B4D0C4CC4
:1028F00001F0E2F8641BA4100026A64205D170BDC9
:1029000055F8043B98470136EEE755F8043B9847E5
:102910000136F2E7F03C0008F03C0008F03C00080B
:10292000F43C00087047704738B50546002941D08F
:1029300051F8043C0C1F002BB8BFE41800F0E0F87D
:102940001D4A136833B9636014602846BDE83840F7
:1029500000F0DCB8A34208D9206821188B4201BFDF
:1029600019685B6809182160EDE71A465B680BB1CE
:10297000A342FAD911685018A0420BD12068014433
:10298000501883421160E0D118685B6853600844B6
:102990001060DAE702D90C232B60D6E720682118F3
:1029A0008B4204BF19685B68636004BF091821602B
:1029B0005460CAE738BD00BFBC02002070B50F4E9E
:1029C0000C463168054611B900F036FF30602146EB
:1029D000284600F031FF431C03D14FF0FF3420465E
:1029E00070BDC41C24F00304A042F8D0211A28466C
:1029F00000F022FF0130F2D1EFE700BFB802002063
:102A00002DE9F843CD1C25F0030508350C2D38BF02
:102A10000C25002D064601DBA94204D90C233360A6
:102A20000020BDE8F883DFF8D48000F069F8D8F81A
:102A300000301C4644BB29463046FFF7BFFF431C0D
:102A4000044658D1D8F800402746002F43D1002C27
:102A50004BD023683946304604EB030900F0ECFE06
:102A6000814542D121686D1A29463046FFF7A6FFFD
:102A700001303AD023682B442360D8F800305A68DC
:102A800062BBC8F800700FE02268521B20D40B2AEA
:102A900017D96119A342256018BF5960636808BF40
:102AA000C8F8001062514B60304600F02FF804F176
:102AB0000B00231D20F00700C21A1CBF1B1AA350D5
:102AC000AFE76268A3420CBFC8F800205A60EBE78A
:102AD00023466468AEE73C467F68B6E71A465B6803
:102AE000A342FBD100235360DEE70C233360304662
:102AF00000F00CF894E70560D6E700BFBC020020A8
:102B00000148FFF70FBF00BFB40200200148FFF7E4
:102B10000ABF00BFB40200202DE9F0478E681F46AF
:102B2000BE420B6882460C4690462DD8B1F90C2067
:102B300012F4906F26D06569096905EB4505A3EB92
:102B4000010905EBD5757B1C4B446D109D4238BFC8
:102B50001D46530527D52946FFF752FF064660B3A9
:102B600021694A4600F078FEA38923F4906343F07C
:102B70008003A381266165614E44A5EB09052660AB
:102B8000A5603E46BE4200D93E46206832464146D8
:102B900000F037FEA3689B1BA360236833442360C7
:102BA0000020BDE8F0872A4600F064FE06460028B3
:102BB000E0D121695046FFF7B7FE0C23CAF8003078
:102BC000A38943F04003A3814FF0FF30E9E7000001
:102BD0002DE9F04F98468B891B069DB007460D46A0
:102BE000144610D50B6973B94021FFF709FF28601F
:102BF000286130B90C233B604FF0FF301DB0BDE8B9
:102C0000F08F40236B610023099320238DF8293036
:102C1000CDF80C803023DFF89C818DF82A304FF0FE
:102C2000010923469A4613F8012B0AB1252AF9D146
:102C3000BAEB040B0BD05B46224629463846FFF719
:102C40006BFF013000F0A780099A5A4409929AF864
:102C50000030002B00F09F8000234FF0FF32CDE9C1
:102C600005230AF1010A049307938DF853301A9350
:102C70005446052214F8011B4E48FDF7E1FA049A68
:102C8000D8B9D00644BF20238DF85330110744BF74
:102C90002B238DF853309AF800302A2B15D0079A41
:102CA000544600204FF00A0C214611F8013B303BFE
:102CB000092B4BD9B0B1079214E0A0EB080309FA35
:102CC00003F313430493A246D2E7039B191D1B6829
:102CD0000391002BBBBF5B4242F0020207930793B4
:102CE000B8BF049223782E2B0AD163782A2B32D1D5
:102CF000039B1A1D1B68039243EAE3730234059396
:102D0000DFF8C0A0217803225046FDF799FA38B1C8
:102D1000049BA0EB0A004022824013430134049339
:102D200014F8011B24488DF828100622FDF788FAB4
:102D3000002836D0214B1BBB039B073323F007032E
:102D400008330393099B334409936AE70CFB02326F
:102D50000C460120A8E700230134059319464FF0E3
:102D60000A0C204610F8012B303A092A03D9002B0F
:102D7000C6D00591C4E70CFB012104460123F0E70E
:102D800003AB00932A460E4B04A93846AFF30080EC
:102D9000421C0646D6D1AB895B063FF52DAF09989C
:102DA0002CE703AB00932A46054B04A9384600F0F4
:102DB00049FAEDE7983B0008A23B0008000000003C
:102DC000192B00089E3B000838B54B1C144603D154
:102DD0004FF0FF35284638BD938923F020039381B7
:102DE000636B5268CDB28BB1A36B934208DD23684D
:102DF0005A1E226003F8015C636801336360E9E7EF
:102E0000214600F0C4FC0028F1D0E1E721692368E5
:102E100051B1994208D213F8011CA94204D1013BD7
:102E2000013223606260D5E7C4E90F3204F1440344
:102E300063630323A363234603F8465F23600123F0
:102E4000DCE710B50C46496B69B104F144039942C3
:102E500001D0FFF769FD236C63600020606313B14C
:102E6000E36B236010BD2369236000236360A389A3
:102E700043F02003A3814FF0FF30F3E72DE9F04F3B
:102E80000C46ADF5237D0021CDE94411A649A09162
:102E90000DF10408A549A64FCDF818810646A19169
:102EA000009392F80090B9F1000F00F0588117F8E4
:102EB000093013F0080302F1010519D06368002BF3
:102EC0000FDD23681A78BA5C120701D42A46E8E7B6
:102ED000459A0132459262680133013A626023608B
:102EE000ECE7A19B2146304698470028E9D0EDE762
:102EF000B9F1250F40F085804193439353782A2BF5
:102F000002BF1023951C41930A22AA461AF8011BFE
:102F1000A1F13003092B1ED9DFF818B2032258465D
:102F2000FDF78EF938B1419AA0EB0B0001238340E5
:102F300013434193554615F8013B782B06D8572B80
:102F400010D8252B5DD057D8002B75D0032347937D
:102F50000A23429388E0439B02FB031130394391DB
:102F60005546D2E7A3F15802202AEFD801A151F823
:102F700022F000BF473000084D2F00084D2F0008F9
:102F8000A13000084D2F00084D2F00084D2F0008DC
:102F90004D2F00084D2F00084D2F00084D2F000821
:102FA000B73000089D300008FF2F0008FF2F0008F1
:102FB000FF2F00084D2F0008593000084D2F000842
:102FC0004D2F00084D2F00084D2F0008C730000876
:102FD000613000083F3000084D2F00084D2F0008D9
:102FE000C33000084D2F00089D3000084D2F000809
:102FF0004D2F000847300008453B022BA6D805237B
:1030000031E06368002B0DDD23681A784A4540F0F3
:10301000A680013362682360459B013A01336260F8
:10302000459353E7A19B2146304698470028EBD0B3
:103030004498002840F08B804FF0FF308BE0419A9D
:1030400042F020024192419A42F4007241921022D1
:103050006E2B429202D905E000234293032302E043
:1030600008234293042347936368002B39DD419B77
:10307000590604D423681A78BA5C120738D4479BDF
:10308000022B47DC6B46224641A9304600F0F8F996
:10309000012864D002287FF419AFC9E70A22D7E7D4
:1030A0002946404600F03AFB419B43F040034193E0
:1030B00005460123D7E7419B43F04003419300239A
:1030C000D1E70223CFE74198C3063FF5FFAE009B4F
:1030D000459A191D00911B68C0074CBF1A801A60E1
:1030E000F4E6A19B2146304698470028BFD09FE7D1
:1030F000459A013245926268013A002A626002DD17
:1031000001332360B6E7A19B21463046984700284B
:10311000B0D08DE7042B0FDC6B46224641A9304628
:1031200000F008FAB4E700BFC92D0008432E0008DC
:10313000E73B00089E3B00080A4B002B3FF4C6AE5D
:103140006B46224641A93046AFF30080A0E7A38931
:103150005B063FF571AF0DF5237DBDE8F08F449818
:10316000F9E700BF000000002DE9F0471646984639
:103170008A680B69DDF820909342B8BF134633602C
:1031800091F8432007460C460AB1013333602368A7
:10319000990642BF336802333360256815F006058F
:1031A00006D104F1190AE36832689B1AAB4226DCA7
:1031B00094F843302268003B18BF012392062BD4B9
:1031C00004F1430241463846C84701301ED0236807
:1031D000226903F00603042B02BFE5683368ED1A89
:1031E000A3680CBF25EAE57500259342C4BF9B1A6E
:1031F000ED1800261A34B5421AD1002008E0012348
:10320000524641463846C847013003D14FF0FF309F
:10321000BDE8F0870135C6E7E1185A1C302081F877
:103220004300224494F8451082F843100233C7E764
:103230000123224641463846C8470130E6D00136D0
:10324000D9E700002DE9FF470F7E0C9E782F9146AD
:1032500080460C469A4601F1430207D8622F0AD8ED
:10326000002F00F0D180582F00F0B88004F1420602
:1032700084F842703AE0A7F16303152BF6D801A158
:1032800051F823F0DD320008F13200086D320008F9
:103290006D3200086D3200086D320008F13200080E
:1032A0006D3200086D3200086D3200086D32000882
:1032B000EF3300081B330008A93300086D32000803
:1032C0006D320008113400086D3200081B3300080D
:1032D0006D3200086D320008B133000833681A1DE2
:1032E0001B68326004F1420684F8423001239CE0FE
:1032F00033682068191D3160060601D51D6803E09A
:103300004506FBD5B3F90050002D03DA2D236D429D
:1033100084F8433058480A2311E0216833680806CE
:1033200053F8045B02D4490648BFADB26F2F524830
:10333000336014BF0A230823002184F84310666811
:10334000A660002E05DB21682E4321F004012160D8
:103350004BD01646B5FBF3F103FB1157C75D06F8DA
:10336000017D2F46BB420D46F4D9082B0BD12368B3
:10337000DF0708D5236961689942DEBF302306F86C
:10338000013C06F1FF36921B2261CDF800A04B46AE
:1033900003AA21464046FFF7E7FE01304AD14FF02D
:1033A000FF3004B0BDE8F087236843F020032360BA
:1033B0003248782784F84570236831681F0651F831
:1033C000045B02D45F0648BFADB23160D90744BF89
:1033D00043F0200323601DB11023ADE72648E9E741
:1033E000236823F020032360F6E71646BDE7336821
:1033F00025686169181D30602E061B6801D51960AB
:1034000002E06806FBD51980002323611646BCE75D
:1034100033681A1D32601E68626800213046FCF76E
:103420000FFF08B1801B606063682361002384F88C
:103430004330AAE72369324649464046D047013027
:10344000ADD023689B0713D4E068039B9842B8BFB4
:103450001846A6E70123324649464046D047013088
:103460009DD00135E36803995B1AAB42F2DCEBE7D0
:10347000002504F11906F5E7A93B0008BA3B00084E
:103480002DE9F84315468A6880460C4632B98A69A8
:10349000002A14BF4FF0FF3201228A602268DFF851
:1034A0009090D1065FBF1A68111D19601668002739
:1034B000A06988B1012807D12B681A7863699B5CE1
:1034C00053B9002F31D022E0022820D12B681B787D
:1034D00019F803301B071AD42368DA065EBF2B687D
:1034E0001B7806F8013B2A686B6801322A60A268E3
:1034F000013B013A6B600137A26042B1002BD7DC7F
:10350000D4F880312946404698470028D0D0236817
:1035100013F0100305D1E2680132E260A26902B142
:10352000337023693B4423610020BDE8F88300BF6A
:10353000E73B00082DE9F04F9846744B0C46824655
:10354000164693E8070087B003AB83E80700704B8B
:10355000A169704A032908BF1A46A36801925A1E3E
:10356000B2F5AE7F88BF6FF4AE75274682BF03EB1E
:10357000050940F25D13A36057F81C3B43F4506308
:1035800098BF4FF0000923603D464FF0000B3168B3
:1035900003AB097853F82B000222FCF751FE28B345
:1035A000BBF1010F59D162682AB92268082142F49F
:1035B000007261602260226822F4A0622260A26828
:1035C000511EA16092B13268511C3160127805F829
:1035D000012B7268013A002A726007DCD4F880215E
:1035E000314650469047002840F085800BF1010B92
:1035F000BBF1030FCBD163680BB90A236360636827
:1036000045496069C91A00F089F84FF0000BA368BA
:103610002268002B3DD03168606991F800C010F835
:103620000C00002835D0BCF1300F24D1100522D574
:103630000BF1010BB9F1000F03D0013309F1FF3990
:10364000A3607368013B002B73601BDD336801339B
:103650003360A368013BA360D9E7BBF1020FAED191
:10366000226802F4C061B1F5007FC4D1102161600D
:1036700042F48072A2E722F4106222600B7805F80F
:10368000013BDEE7D4F880313146504698470028A8
:10369000DFD02368D9050DD5BD4209D915F8011C25
:1036A000D4F87C3132465046984705F1FF394D46F3
:1036B000BD4228D0226812F0100213D12A7063682C
:1036C000019E39465046B047D8F8003021681A1D8F
:1036D000C8F8002011F0200F1B680FD01860E368B5
:1036E0000133E3602369ED1B5D442B44236100201B
:1036F00007B0BDE8F08F4FF0000BCAE7CA074CBF18
:1037000018801860EBE70120F2E700BFD03A00080C
:10371000C5390008A53A0008DB3B000870B50B78F6
:1037200004465E2B0BBF4B784A1C8A1C002108BF45
:103730000121013804F1FF0500F8011FA842FBD167
:103740000BB9501E70BD81F00101E15410460246D4
:1037500012F8015B2D2D05D05D2D16D0002DF1D076
:103760002B46F2E746785D2EFAD0B342F8DC023001
:103770001A4601329642A154FBDCF21A013A5D1C52
:10378000B342A8BF0022AB18E1E71046DAE72DE903
:10379000F0410C46496B04F1440399421DD14FF4AA
:1037A0008061FFF72DF918B94FF0FF30BDE8F081C7
:1037B0004FF48063A36394F84630606380F8FF336E
:1037C00094F8453080F8FE3394F8443080F8FD33A7
:1037D00000F2FD3020600020E8E7A66B77003A4653
:1037E00000F048F805460028DED000EB0608014648
:1037F0003246404600F030F8C4E90D57C4F8008066
:10380000E9E7884210B501EB020402D9844223465D
:1038100007D8431EA14208D011F8012B03F8012F4D
:10382000F8E7024401468A4200D110BD13F8014D69
:1038300002F8014DF7E7000038B5064D00230446B5
:1038400008462B60FEF77EFF431C02D12B6803B1B4
:10385000236038BDB00200200A44914200F1FF33DA
:1038600000D1704710B511F8014B03F8014F914298
:10387000F9D110BD2DE9F041074614460D4621B996
:10388000BDE8F0411146FFF7BBB82AB9FFF74CF885
:1038900025462846BDE8F08100F006F98442064638
:1038A00002D8B4EB500FF4D821463846FFF7A8F8F9
:1038B000804608B94546ECE7B4422246294628BF6F
:1038C0003246FFF7C9FF29463846FFF72DF8F1E7E2
:1038D000242B2DE9F0478646904601D8012B06D1CE
:1038E000FEF7F6FF162303600020BDE8F08734489A
:1038F0000D462A4615F8014B065D16F00806F8D16C
:103900002D2C10D12C780126951C33F0100215D1E6
:10391000302C0DD12A7802F0DF02582A08D16C78B9
:10392000023510230AE02B2C04BF2C78951CECE701
:10393000002BF6D1302C14BF0A23082306F1004CCB
:103940000CF1FF3C0022BCFBF3F9104603FB19CA43
:10395000A4F13007092F0FD83C46A3421BDD571CAA
:1039600007D0814514D301D1A24511DB00FB0340F0
:10397000012215F8014BEBE7A4F14107192F01D8FB
:10398000373CEAE7A4F16107192F04D8573CE4E774
:103990004FF0FF32EDE7531C08D12223CEF8003060
:1039A0006046B8F1000FA0D0691E06E006B14042A3
:1039B000B8F1000F99D0002AF6D1C8F8001094E7AA
:1039C000E73B0008FFF784BF2DE9F043344E8646FD
:1039D0000D46284615F8014B375D17F00807F8D15A
:1039E0002D2C10D12C780127851C33F0100015D117
:1039F000302C0DD1287800F0DF00582808D16C78E1
:103A0000023510230AE02B2C04BF2C78851CECE730
:103A1000002BF6D1302C14BF0A2308234FF0FF38B7
:103A20000026B8FBF3F803FB08F96FEA09093046F2
:103A3000A4F1300CBCF1090F10D86446A3421EDD7E
:103A4000B6F1FF3F07D0804516D301D1A14513DB66
:103A500000FB0340012615F8014BE9E7A4F1410CF6
:103A6000BCF1190F01D8373CE8E7A4F1610CBCF1B7
:103A7000190F04D8573CE1E74FF0FF36EBE7731C12
:103A800006D12223CEF80030304632B9BDE8F083AB
:103A900007B14042002AF9D006B1691E1160F5E76E
:103AA000E73B0008FFF790BF51F8043C181F002BBC
:103AB000BCBF0B58C0187047F8B500BFF8BC08BCB5
:103AC0009E467047F8B500BFF8BC08BC9E467047DC
:103AD000DD3B0008E03B0008E33B000842544E3069
:103AE0000D0A000042544E310D0A000042544E327D
:103AF0000D0A000042544E330D0A00002532732097
:103B0000256400004C49000025327320255B5E0AC5
:103B10005D00000057520000436F6E74726F6C6C52
:103B200065720000436F6E6E65637465642E0000FD
:103B3000446973636F6E6E656374656400000000B2
:103B40004845590D0A0000005945530D0A00000070
:103B50004449440D0A0000004C49540D0A0000007D
:103B600053484F0D0A000000504F54302025347543
:103B70000D0A0000504F5431202534750D0A000005
:103B8000000000000102030400000000000000002B
:103B90000102030406070809232D302B2000686C5E
:103BA0004C00656667454647003031323334353660
:103BB0003738394142434445460030313233343599
:103BC0003637383961626364656600412D46612D80
:103BD00066383930313233343536375D002B2D00BD
:103BE0003030007858000020202020202020202085
:103BF000282828282820202020202020202020209D
:103C000020202020202020881010101010101010CC
:103C10001010101010101004040404040404040410
:103C20000410101010101010414141414141010198
:103C30000101010101010101010101010101010174
:103C40000101101010101010424242424242020282
:103C50000202020202020202020202020202020244
:103C600002021010101020000000000000000000F0
:103C70000000000000000000000000000000000044
:103C80000000000000000000000000000000000034
:103C90000000000000000000000000000000000024
:103CA0000000000000000000000000000000000014
:103CB0000000000000000000000000000000000004
:103CC00000000000000000000000000000000000F4
:103CD00000000000000000000000000000000000E4
:083CE0000000000000000000DC
:083CE80028C5FF7F0100000068
:043CF000F5010008D2
:043CF400D1010008F2
:103CF80005010000100000000024F400100000205E
:103D08000000000078010020E001002048020020A7
:103D1800000000000000000000000000000000009B
:103D2800000000000000000000000000000000008B
:103D3800000000000000000000000000000000007B
:0C3D48000000000000000000000000006F
:040000050800278D3B
:00000001FF
